:100000000C9402020C941F020C941F020C941F0209
:100010000C941F020C941F020C941F020C941F02DC
:100020000C941F020C941F020C941F020C941F02CC
:100030000C941F020C941F020C941F020C941F02BC
:100040000C941F020C941F020C941F020C941F02AC
:100050000C941F0254686973206973204156522022
:1000600041546D6567613136207769746820526F3D
:10007000756E6420526F62696E0044617461207312
:100080006176656420746F20454550524F4D2E00B7
:10009000454550524F4D20636C65617265642E205A
:1000A0004166746572206E6578742072657365743C
:1000B0002064656661756C74732077696C6C20626E
:1000C0006520757365642E0053797374656D2069BE
:1000D0007320726573657474696E672E2E2E0045E9
:1000E00072726F723A20496E76616C696420736C2B
:1000F000617665206E756D626572004572726F7211
:100100003A204E6F2061637469766520736C617666
:10011000657320617661696C61626C65004572721D
:100120006F723A2043757272656E7420736C6176DB
:10013000652069732064697361626C65640041764F
:1001400061696C61626C6520636F6D6D616E647373
:100150003A0020202A207072696E74205B4E5D2068
:1001600020202020202D20446973706C617920614B
:100170006C6C2061637469766520736C61766520B0
:10018000616464726573736573206F72207468654F
:10019000206E657874204E20736C617665732E0036
:1001A0002020202020202020202020202020205718
:1001B0006974686F7574204E2C20646973706C616B
:1001C000797320616C6C2061637469766520616469
:1001D000647265737365732E0020202A20656E613A
:1001E000626C65204E202020202D20456E61626CBF
:1001F0006520736C6176652077697468206E756D13
:10020000626572204E2E0020202A2064697361628C
:100210006C65204E2020202D2044697361626C653E
:1002200020736C6176652077697468206E756D62E5
:100230006572204E2E0020202A2063757272656E32
:10024000742020202020202D2053686F7720746890
:10025000652063757272656E74206163746976657A
:1002600020736C61766520616464726573732E001F
:1002700020202A2073617665202020202020202045
:1002800020202D20536176652063757272656E742F
:1002900020636F6E66696720746F20454550524F2A
:1002A0004D2E0020202A20636C65617220202020C2
:1002B0002020202020202D20436C656172204545A0
:1002C00050524F4D206461746120616E64207265EC
:1002D00073657420636F6E66696775726174696FA8
:1002E0006E2E0020202A2072657365742020202045
:1002F0002020202020202D2050726F6772616D6DAC
:1003000061746963616C6C792072657365742074C3
:100310006865206D6963726F636F6E74726F6C6C69
:1003200065722E0020202A2068656C702020202015
:10033000202020202020202D2053686F77207468F3
:1003400069732068656C70206D6573736167652ED5
:10035000004E6F74653A0020204279206465666122
:10036000756C742C20616E7920656E74657265649D
:1003700020737472696E672077696C6C20626520E7
:10038000747265617465642061732061206D6573AA
:100390007361676520746F00202073656E6420743C
:1003A0006F207468652063757272656E7420736C5B
:1003B000617665206465766963652E2054686520E2
:1003C00073797374656D2077696C6C2062616C6100
:1003D0006E6365207468650020206C6F6164207511
:1003E00073696E672074686520526F756E64205261
:1003F0006F62696E20616C676F726974686D2E0040
:1004000080C094D411241FBECFE5D4E0DEBFCDBFA1
:1004100011E0A0E6B0E0E2E0F6E102C005900D9246
:10042000A63FB107D9F712E0A6EFB1E001C01D92D7
:10043000A73DB107E1F70E9451040C94FF0A0C9408
:10044000000090BD89B988E18AB986E880BD089529
:100450005D9BFECF8CB90895EF92FF92CF93DF930F
:10046000E82EE7017E01F92EE70102C00E94280272
:1004700089918823D9F7DF91CF91FF90EF9008956C
:100480000E942C028DE00E9428028AE00E9428022D
:100490008FE097E20197F1F700C000000895CF9335
:1004A000DF93EC0102C00E942802FE012196849194
:1004B0008823C9F7DF91CF9108950E944F028DE004
:1004C0000E9428028AE00E942802089540E070E01D
:1004D000615070405F9BFECF5CB1FC01E40FF11DE9
:1004E00050834F5F242F30E02617370714F45D3018
:1004F00089F7840F911D0197FC011082089511B8AE
:1005000080E280B984E086BF089584EA86BF06B69B
:1005100007FEFDCF089584E986BF06B604FCFDCF33
:10052000089583B984E886BF06B607FEFDCF089517
:100530008BBBAA98AC9A82E08A95F1F700C0AC9880
:100540008FE99FE00197F1F700C0000008958BBB91
:10055000AA9AAC9A82E08A95F1F700C0AC988FE92C
:100560009FE00197F1F700C0000008958FEF8ABB6C
:1005700084B38C6184BB8FE39CE90197F1F700C0E1
:10058000000088E30E9498028CE00E94980286E0B6
:100590000E94980281E00E9498028FE99FE00197F3
:1005A000F1F700C00000089581E00E9498028FE9F1
:1005B0009FE00197F1F700C000000895E82FF0E0F8
:1005C000E150FC4F84916150860F0E94980208957B
:1005D0001F93CF93DF93EC0110E003C01F5F0E94D5
:1005E000A702FE01E10FF11D80818823B9F7DF9199
:1005F000CF911F910895A7E6B2E0E7EFF1E088E020
:1006000091E08D9391938F5F8837D9F71092F6011F
:100610000895FB0127E030E090E0AC01022E02C01B
:10062000559547950A94E2F740FF02C041E301C0A7
:1006300040E34193215030404FEF2F3F340769F79B
:10064000FB01108608950F931F93CF93DF9301EF63
:1006500011E0C0E0D0E0F80161918F01CE0180503F
:1006600090400E94170A2196C430D105A1F707E6F1
:1006700012E0C0E0D0E0F80161918F01CE018C5F03
:100680009F4F0E94170A2196C037D105A1F707EFA7
:1006900011E0C0E0D0E0F80161918F01CE018C58EB
:1006A0009F4F0E94170A2196C037D105A1F784EE0B
:1006B00090E06091F6010E94170A8AE790E00E949C
:1006C0005D02DF91CF911F910F9108950F931F93BA
:1006D000CF93DF9301EF11E0C0E0D0E0CE01805076
:1006E00090400E940F0AF80191918F01891761F5DE
:1006F0002196C430D10591F707E612E0C0E0D0E0C2
:10070000CE018C5F9F4F0E940F0AF80181938F01E9
:100710002196C037D105A1F707EF11E0C0E0D0E086
:10072000CE018C589F4F0E940F0AF80181938F01D0
:100730002196C037D105A1F784EE90E00E940F0A00
:100740008093F60181E001C080E0DF91CF911F919D
:100750000F9108950E946603882321F40E94FB02F2
:100760000E94230308950F931F93DF93CF93CDB778
:10077000DEB76E970FB6F894DEBF0FBECDBF982FD1
:100780009150903728F08FED90E00E945D0228C0D4
:1007900090E0FC01EA50FE4F21E0208300D000D021
:1007A00000D0EDB7FEB731968E010F5F1F4FADB78A
:1007B000BEB712961C930E93119720E630E0338358
:1007C0002283958384830E9405088DB79EB7069681
:1007D0000FB6F8949EBF0FBE8DBFC8010E944002A5
:1007E0006E960FB6F894DEBF0FBECDBFCF91DF91EE
:1007F0001F910F9108950F931F93DF93CF93CDB760
:10080000DEB76E970FB6F894DEBF0FBECDBF982F40
:100810009150903728F08FED90E00E945D0227C044
:1008200090E0FC01EA50FE4F108200D000D000D0D2
:10083000EDB7FEB731968E010F5F1F4FADB7BEB754
:1008400012961C930E93119722E730E03383228394
:10085000958384830E9405088DB79EB706960FB6D0
:10086000F8949EBF0FBE8DBFC8010E9440026E96D5
:100870000FB6F894DEBF0FBECDBFCF91DF911F91B1
:100880000F91089528E088E190E00FB6F894A895BC
:1008900081BD0FBE21BDFFCF81B5886181BD11BC77
:1008A00008952F923F924F925F927F928F929F92E4
:1008B000AF92BF92CF92DF92EF92FF920F931F936E
:1008C000DF93CF93CDB7DEB7CB5DD0400FB6F894B2
:1008D000DEBF0FBECDBF84B7886084BF0E944C04CA
:1008E00083E390E00E9421020E947F020E94B602F0
:1008F0000E94AA0384E590E00E945D028E010F5ED3
:100900001F4F6AE3E62EF12CEC0EFD1E58E0452E3B
:10091000512C4C0E5D1E4AE8A42EB12CAC0EBD1E0F
:10092000A501475F5F4FC652DF4F59834883CA5DB9
:10093000D0401E010894211C311C02C08093F60196
:10094000C80164E10E94660200D000D000D0EDB77B
:10095000FEB73196ADB7BEB71296FC92EE921197E4
:1009600046E950E053834283158304830E940508BF
:100970008DB79EB706960FB6F8949EBF0FBE8DBF7B
:10098000C7010E944002C8016BE970E045E050E0F9
:100990000E94EF07009709F08AC0F801019000203B
:1009A000E9F73197E01BF10BE730F10530F0CE01AC
:1009B00047960E94C607882E01C08824882D815042
:1009C0008F3618F49090F60101C09924772468C0FE
:1009D000C92CDD24F601E959FD4F8081B2010E9446
:1009E0000903F601E950FE4F8081882319F025E8BC
:1009F00030E002C02DE830E04091F601B6016959BF
:100A00007D4FC6010196941691F4ADB7BEB71C9701
:100A10000FB6F894BEBF0FBEADBFEDB7FEB73196AF
:100A20001296FC92EE92119741EA50E014C04DB735
:100A30005EB74C5050400FB6F8945EBF0FBE4DBF2E
:100A4000EDB7FEB73196ADB7BEB71296FC92EE92F7
:100A5000119747EC50E05383428395838483DB01F5
:100A60008C918683178251864086338722870E9425
:100A70000508EDB7FEB73C960FB6F894FEBF0FBE63
:100A8000EDBFC7010E944002F72DFF3609F458CF91
:100A90007394C601019660E770E00E949F07982E4C
:100AA000882009F495CF781408F492CF49CFC80173
:100AB0006BEE70E047E050E00E94EF07009739F4DA
:100AC000CE0148960E94C6070E94B30339CFC801E1
:100AD00063EF70E048E050E00E94EF07009759F59F
:100AE000CE0149960E94C6070E94FB039091F60131
:100AF000E92FF0E0E950FE4F8081882309F020CFF4
:100B000020E030E7C32ED12C892F90E00196B6016A
:100B10000E949F07982F2F5F203729F48093F601BA
:100B20008BEF90E0D2C0E82FF0E0E950FE4F30812B
:100B3000332351F303CFC8016CEF70E047E050E07E
:100B40000E94EF07009709F042C08091F60190E003
:100B5000FC01E950FE4F20812130B1F589599D4FAC
:100B6000DC018C91B2010E940903EDB7FEB73A9700
:100B70000FB6F894FEBF0FBEEDBF3196ADB7BEB74E
:100B80001296FC92EE92119744E051E05383428317
:100B9000A091F601B0E0A959BD4F8C9184831582D4
:100BA0005782468285E890E0918780870E940508F9
:100BB000ADB7BEB71A960FB6F894BEBF0FBEADBFA5
:100BC000C7010E944002BCCE8DE191E07EC0C80109
:100BD00062E371E044E050E00E94EF07009719F4EF
:100BE0000E942303ADCEC80167E371E045E050E009
:100BF0000E94EF07009791F4CC24DD24C6018050B9
:100C000090406FEF0E94170A0894C11CD11CB4E0F9
:100C1000CB16D10499F780E990E057C0C8016DE385
:100C200071E045E050E00E94EF07009759F488EC2E
:100C300090E00E945D0283E491E00E9440020E94E5
:100C400042047ECEC80164E471E044E050E00E94BA
:100C5000EF070097E9F58EE391E00E945D0282E5DF
:100C600091E00E945D0280EA91E00E945D0289EDC0
:100C700091E00E945D0287E092E00E945D0286E3BF
:100C800092E00E945D0280E792E00E945D0283EAAA
:100C900092E00E945D0283EE92E00E945D0284E297
:100CA00093E00E945D0283E491E00E94400281E5AE
:100CB00093E00E945D0287E593E00E945D0288E96F
:100CC00093E00E945D0288ED93E00E945D0238CEC1
:100CD000EDB7FEB738970FB6F894FEBF0FBEEDBF65
:100CE0003196ADB7BEB71296FC92EE92119749E4D9
:100CF00051E05383428315830483A091F601B0E051
:100D0000A959BD4F8C91868317820E9405088DB723
:100D10009EB708960FB6F8949EBF0FBE8DBFC70151
:100D20000E9440020E94D40281E061E00E94DE0243
:100D300000D000D000D0ADB7BEB7119695E2C92E55
:100D4000D12CCC0EDD1EEDB7FEB7D282C18243E7B7
:100D500051E013965C934E931297E091F601F0E008
:100D6000E959FD4F808114968C93149715961C9227
:100D70000E9405088DB79EB706960FB6F8949EBFE1
:100D80000FBE8DBFC6010E94E80282E061E00E94B2
:100D9000DE0200D000D000D0EDB7FEB73196ADB77F
:100DA000BEB71296DC92CE92119740E851E0538381
:100DB0004283158304830E9405088DB79EB706966B
:100DC0000FB6F8949EBF0FBE8DBFC6010E94E80209
:100DD00083E061E00E94DE02E091F601F0E0E95973
:100DE000FD4F9080990C00D000D000D0EDB7FEB739
:100DF0003196ADB7BEB71296DC92CE92119748E805
:100E000051E053834283948215820E9405088DB776
:100E10009EB706960FB6F8949EBF0FBE8DBFC60153
:100E20000E94E8020E948502892D0E94910284E0BE
:100E300061E00E94DE02D501E1EAF1E089E0019083
:100E40000D928150E1F787E4C652DF4FA881B98146
:100E5000CA5DD0401D928A95E9F7CC2439C00E9422
:100E6000910200D000D000D0EDB7FEB73196ADB7FB
:100E7000BEB712963C922E92119749E951E05383E6
:100E80004283D4018C91848315820E940508D50188
:100E90000D900020E9F71197AA19BB09F101019003
:100EA0000020E9F73197E219F309EA0FFB1F4DB76C
:100EB0005EB74A5F5F4F0FB6F8945EBF0FBE4DBF7F
:100EC000E035F10568F4C501B1010E94E407C3945F
:100ED00048018C0C911CD4018C91882309F0BFCF60
:100EE000C5010E94E8020E948B029091F60120E069
:100EF00080E7C82ED12C892F90E00196B6010E9480
:100F00009F07982F2F5F203739F48093F6018BEFDE
:100F100090E00E945D0209C0E82FF0E0E950FE4F2A
:100F20003081332341F38093F6018FEF99E6A8E1F6
:100F300081509040A040E1F700C0000001CD97FB38
:100F4000092E07260AD077FD04D00CD006D0002049
:100F50001AF4709561957F4F0895F6F790958195F5
:100F60009F4F0895AA1BBB1B51E107C0AA1FBB1FBF
:100F7000A617B70710F0A61BB70B881F991F5A9525
:100F8000A9F780959095BC01CD010895FC018827B3
:100F90009927E89421912032E9F3293010F02E307E
:100FA000C8F32B3241F02D3239F4689404C00E940A
:100FB000FD07820F911D219120532A30C0F31EF4AA
:100FC000909581959F4F0895FB01DC010D900020C5
:100FD000E9F7119701900D920020E1F70895FB01C8
:100FE000DC014150504030F08D910190801919F48E
:100FF0000020B9F7881B990B08957AE0979F902DF0
:10100000879F802D910D11240895AEE0B0E0EBE0B4
:10101000F8E00C94D60A0D891E8986E08C831A8329
:1010200009838FEF9FE79E838D839E01275E3F4F4D
:10103000CE0101966F89788DA9010E942808EF8161
:10104000F885E00FF11F10822E96E4E00C94F20A6E
:10105000ACE0B0E0EEE2F8E00C94C80A6C011B01D1
:101060008A01FC0117821682838181FFD1C12E0182
:101070000894411C511CF6019381F10193FD859167
:1010800093FF81911F01882309F4BEC1853239F491
:1010900093FD859193FF81911F01853229F490E0A2
:1010A000B6010E943E0AE7CFEE24FF2420E0203262
:1010B000B0F48B3269F08C3228F4803251F08332F4
:1010C00071F40BC08D3239F0803349F421602CC0AB
:1010D0002260246029C0286027C0206125C027FD28
:1010E0002CC0382F30533A3098F426FF08C08E2D8C
:1010F000880FE82EEE0CEE0CE80EE30E15C08F2DD7
:10110000880FF82EFF0CFF0CF80EF30E20620CC0B7
:101110008E3221F426FD78C1206406C08C3611F48D
:10112000206802C0883649F4F10193FD859193FF50
:1011300081911F01882309F0BACF982F95549330DD
:1011400018F09052933028F40C5F1F4FFFE3F9839F
:101150000DC0833631F0833771F0833509F060C0FC
:1011600022C0F801808189830E5F1F4F420171E028
:10117000A72EB12C16C062E0662E712C600E711E77
:10118000F8018080918026FF03C06E2D70E002C0C0
:101190006FEF7FEFC4012C870E94330A5C0183014B
:1011A0002C852F7717C052E0652E712C600E711EB2
:1011B000F8018080918026FF03C06E2D70E002C090
:1011C0006FEF7FEFC4012C870E94280A5C012C85F9
:1011D0002068830123FD20C008C080E290E0B601B2
:1011E0002C870E943E0AFA942C858F2D90E0A81639
:1011F000B90698F311C0F40127FD859127FF81916D
:101200004F0190E0B6012C870E943E0A2C85F11018
:10121000FA940894A108B108A114B10461F7F1C0CF
:10122000843611F0893649F527FF08C0F80160813E
:101230007181828193810C5F1F4F09C0F801608129
:101240007181882777FD8095982F0E5F1F4F4FE69D
:10125000B42EB22297FF09C0909580957095619544
:101260007F4F8F4F9F4FF0E8BF2AA2012AE030E066
:101270000E946A0A782E741845C0853731F43FEE13
:10128000B32EB2222AE030E025C099EFB92EB22267
:101290008F36C1F0803720F4883509F0B5C00DC015
:1012A000803721F0883709F0AFC002C020E1B22AB0
:1012B000B4FE0BC084E0B82A08C0B4FE09C0E6E062
:1012C000BE2A06C028E030E005C020E130E002C0C0
:1012D00020E132E0B7FE08C0F801608171818281AF
:1012E00093810C5F1F4F07C0F8016081718180E01E
:1012F00090E00E5F1F4FA2010E946A0A782E7418B8
:10130000FFE7BF22B6FE0BC02EEFB2227E1438F4E8
:10131000B4FE07C0B2FC05C08FEEB82202C0A72CF5
:1013200001C0AE2C8B2D90E0B4FE0DC0FE01E70D88
:10133000F11D2081203319F4E9EEBE2209C0A394E7
:10134000B2FE06C004C086789070009709F0A3949E
:101350008B2C9924B3FC14C0B0FE0FC0AF1428F43A
:10136000E72CEF0CEA18AF2C08C0E72C06C080E28F
:1013700090E0B6010E943E0AA394AF14C0F304C0EB
:10138000AF1410F4FA1801C0FF2484FE0FC080E3EC
:1013900090E0B6010E943E0A82FE1FC081FE03C09B
:1013A00088E590E010C088E790E00DC0C401867821
:1013B0009070009791F081FC02C080E201C08BE246
:1013C000B7FC8DE290E0B6010E943E0A06C080E3C1
:1013D00090E0B6010E943E0AEA947E14C0F37A942B
:1013E000F201E70DF11D808190E0B6010E943E0AF6
:1013F0007720A9F706C080E290E0B6010E943E0A7D
:10140000FA94FF20C1F737CEF6012681378102C05A
:101410002FEF3FEFC9012C96E2E10C94E40AE19929
:10142000FECF9FBB8EBBE09A99278DB30895262FE0
:10143000E199FECF9FBB8EBBE09A01970DB20216D9
:1014400031F02DBB0FB6F894E29AE19A0FBE0895E1
:10145000FC010590615070400110D8F7809590957F
:101460008E0F9F1F0895FC01615070400190011084
:10147000D8F7809590958E0F9F1F08950F931F9317
:10148000CF93DF938C01EB018B8181FF1BC082FF27
:101490000DC02E813F818C819D812817390764F40E
:1014A000E881F9810193F983E88306C0E885F9852D
:1014B000802F0995009731F48E819F8101969F833B
:1014C0008E8302C00FEF1FEFC801DF91CF911F91F4
:1014D0000F910895FA01AA27283051F1203181F1A6
:1014E000E8946F936E7F6E5F7F4F8F4F9F4FAF4F2C
:1014F000B1E03ED0B4E03CD0670F781F891F9A1F3F
:10150000A11D680F791F8A1F911DA11D6A0F711DF2
:10151000811D911DA11D20D009F468943F912AE0FE
:10152000269F11243019305D3193DEF6CF010895E6
:10153000462F4770405D4193B3E00FD0C9F7F6CF17
:10154000462F4F70405D4A3318F0495D31FD4052DF
:10155000419302D0A9F7EACFB4E0A6959795879575
:1015600077956795BA95C9F7009761057105089554
:101570009B01AC010A2E0694579547953795279500
:10158000BA95C9F7620F731F841F951FA01D089598
:101590002F923F924F925F926F927F928F929F9283
:1015A000AF92BF92CF92DF92EF92FF920F931F9371
:1015B000CF93DF93CDB7DEB7CA1BDB0B0FB6F89422
:1015C000DEBF0FBECDBF09942A88398848885F8462
:1015D0006E847D848C849B84AA84B984C884DF80D3
:1015E000EE80FD800C811B81AA81B981CE0FD11DB7
:1015F0000FB6F894DEBF0FBECDBFED010895F8948D
:02160000FFCF1A
:10160200536C6176652025336420656E61626C657A
:101612006400536C617665202533642064697361CC
:10162200626C656400456E61626C65640044697356
:1016320061626C6564003E202573007072696E748D
:10164200002A20536C617665202533643A20307875
:1016520025303258202842696E6172793A2025730A
:1016620029205B25735D00536C6176652025336408
:101672003A20307825303258202842696E617279DA
:101682003A20257329205B25735D00656E61626CCB
:1016920065200064697361626C6520006375727213
:1016A200656E740043757272656E7420736C617638
:1016B200653A20416464723A2030782530325820ED
:1016C2002842696E6172793A20257329205B25735D
:1016D2005D007361766500636C65617200726573AB
:1016E2006574000068656C7000596F752073656ED3
:1016F200743A2025732E2049742077617320736514
:101702006E7420746F20416464723A203078253000
:10171200325800416464723A2030782530325800E1
:101722004D73673A20257300493243204164647245
:101732003A2030782530325800203078253032581F
:1017420000493243204D73673A0000000000000058
:101752000000000000000000000000000000000087
:101762000000000000000000000000000000000077
:101772000000000000000000000000000000000067
:101782000000000000000000000000000000000057
:0617920000DEADBEEF0019
:00000001FF
